{
  "_format": "hh-sol-artifact-1",
  "contractName": "Voting",
  "sourceName": "contracts/voting.sol",
  "abi": [
    {
      "inputs": [],
      "stateMutability": "nonpayable",
      "type": "constructor"
    },
    {
      "anonymous": false,
      "inputs": [
        {
          "indexed": true,
          "internalType": "address",
          "name": "previousOwner",
          "type": "address"
        },
        {
          "indexed": true,
          "internalType": "address",
          "name": "newOwner",
          "type": "address"
        }
      ],
      "name": "OwnershipTransferred",
      "type": "event"
    },
    {
      "anonymous": false,
      "inputs": [
        {
          "indexed": false,
          "internalType": "uint256",
          "name": "proposalId",
          "type": "uint256"
        },
        {
          "indexed": false,
          "internalType": "address",
          "name": "caller",
          "type": "address"
        }
      ],
      "name": "ProposalRegistered",
      "type": "event"
    },
    {
      "anonymous": false,
      "inputs": [
        {
          "indexed": false,
          "internalType": "address",
          "name": "voter",
          "type": "address"
        },
        {
          "indexed": false,
          "internalType": "uint256",
          "name": "proposalId",
          "type": "uint256"
        }
      ],
      "name": "Voted",
      "type": "event"
    },
    {
      "anonymous": false,
      "inputs": [
        {
          "indexed": false,
          "internalType": "address",
          "name": "voterAddress",
          "type": "address"
        },
        {
          "indexed": false,
          "internalType": "address",
          "name": "caller",
          "type": "address"
        }
      ],
      "name": "VoterRegistered",
      "type": "event"
    },
    {
      "anonymous": false,
      "inputs": [
        {
          "indexed": false,
          "internalType": "enum Voting.WorkflowStatus",
          "name": "previousStatus",
          "type": "uint8"
        },
        {
          "indexed": false,
          "internalType": "enum Voting.WorkflowStatus",
          "name": "newStatus",
          "type": "uint8"
        },
        {
          "indexed": false,
          "internalType": "address",
          "name": "caller",
          "type": "address"
        }
      ],
      "name": "WorkflowStatusChange",
      "type": "event"
    },
    {
      "inputs": [
        {
          "internalType": "string",
          "name": "description",
          "type": "string"
        }
      ],
      "name": "addProposal",
      "outputs": [],
      "stateMutability": "nonpayable",
      "type": "function"
    },
    {
      "inputs": [
        {
          "internalType": "address",
          "name": "voter",
          "type": "address"
        }
      ],
      "name": "canAddProposal",
      "outputs": [
        {
          "internalType": "bool",
          "name": "",
          "type": "bool"
        }
      ],
      "stateMutability": "view",
      "type": "function"
    },
    {
      "inputs": [
        {
          "internalType": "address",
          "name": "voter",
          "type": "address"
        }
      ],
      "name": "canRegisterItself",
      "outputs": [
        {
          "internalType": "bool",
          "name": "",
          "type": "bool"
        }
      ],
      "stateMutability": "view",
      "type": "function"
    },
    {
      "inputs": [
        {
          "internalType": "address",
          "name": "voter",
          "type": "address"
        }
      ],
      "name": "canVote",
      "outputs": [
        {
          "internalType": "bool",
          "name": "",
          "type": "bool"
        }
      ],
      "stateMutability": "view",
      "type": "function"
    },
    {
      "inputs": [],
      "name": "enableVoteForNewBallot",
      "outputs": [],
      "stateMutability": "nonpayable",
      "type": "function"
    },
    {
      "inputs": [],
      "name": "endProposalsRegistration",
      "outputs": [],
      "stateMutability": "nonpayable",
      "type": "function"
    },
    {
      "inputs": [],
      "name": "endVotingSession",
      "outputs": [],
      "stateMutability": "nonpayable",
      "type": "function"
    },
    {
      "inputs": [],
      "name": "getProposals",
      "outputs": [
        {
          "components": [
            {
              "internalType": "string",
              "name": "description",
              "type": "string"
            },
            {
              "internalType": "uint256",
              "name": "voteCount",
              "type": "uint256"
            }
          ],
          "internalType": "struct Voting.Proposal[]",
          "name": "",
          "type": "tuple[]"
        }
      ],
      "stateMutability": "view",
      "type": "function"
    },
    {
      "inputs": [],
      "name": "getStatus",
      "outputs": [
        {
          "internalType": "enum Voting.WorkflowStatus",
          "name": "",
          "type": "uint8"
        }
      ],
      "stateMutability": "view",
      "type": "function"
    },
    {
      "inputs": [],
      "name": "getWinningProposalHistoryCount",
      "outputs": [
        {
          "internalType": "uint256",
          "name": "",
          "type": "uint256"
        }
      ],
      "stateMutability": "view",
      "type": "function"
    },
    {
      "inputs": [],
      "name": "getWinningProposalId",
      "outputs": [
        {
          "internalType": "uint8",
          "name": "",
          "type": "uint8"
        }
      ],
      "stateMutability": "view",
      "type": "function"
    },
    {
      "inputs": [],
      "name": "owner",
      "outputs": [
        {
          "internalType": "address",
          "name": "",
          "type": "address"
        }
      ],
      "stateMutability": "view",
      "type": "function"
    },
    {
      "inputs": [],
      "name": "pickWinner",
      "outputs": [],
      "stateMutability": "nonpayable",
      "type": "function"
    },
    {
      "inputs": [],
      "name": "pickWinnerRandomly",
      "outputs": [],
      "stateMutability": "nonpayable",
      "type": "function"
    },
    {
      "inputs": [],
      "name": "prepareNewBallot",
      "outputs": [],
      "stateMutability": "nonpayable",
      "type": "function"
    },
    {
      "inputs": [
        {
          "internalType": "uint256",
          "name": "",
          "type": "uint256"
        }
      ],
      "name": "proposals",
      "outputs": [
        {
          "internalType": "string",
          "name": "description",
          "type": "string"
        },
        {
          "internalType": "uint256",
          "name": "voteCount",
          "type": "uint256"
        }
      ],
      "stateMutability": "view",
      "type": "function"
    },
    {
      "inputs": [
        {
          "internalType": "address",
          "name": "_address",
          "type": "address"
        }
      ],
      "name": "registerVoter",
      "outputs": [],
      "stateMutability": "nonpayable",
      "type": "function"
    },
    {
      "inputs": [],
      "name": "renounceOwnership",
      "outputs": [],
      "stateMutability": "nonpayable",
      "type": "function"
    },
    {
      "inputs": [],
      "name": "resetVoting",
      "outputs": [],
      "stateMutability": "nonpayable",
      "type": "function"
    },
    {
      "inputs": [],
      "name": "startProposalsRegistration",
      "outputs": [],
      "stateMutability": "nonpayable",
      "type": "function"
    },
    {
      "inputs": [],
      "name": "startVotingSession",
      "outputs": [],
      "stateMutability": "nonpayable",
      "type": "function"
    },
    {
      "inputs": [
        {
          "internalType": "address",
          "name": "newOwner",
          "type": "address"
        }
      ],
      "name": "transferOwnership",
      "outputs": [],
      "stateMutability": "nonpayable",
      "type": "function"
    },
    {
      "inputs": [
        {
          "internalType": "uint8",
          "name": "proposalId",
          "type": "uint8"
        }
      ],
      "name": "vote",
      "outputs": [],
      "stateMutability": "nonpayable",
      "type": "function"
    },
    {
      "inputs": [
        {
          "internalType": "uint256",
          "name": "",
          "type": "uint256"
        }
      ],
      "name": "winningProposalHistory",
      "outputs": [
        {
          "internalType": "string",
          "name": "description",
          "type": "string"
        },
        {
          "internalType": "uint256",
          "name": "voteCount",
          "type": "uint256"
        }
      ],
      "stateMutability": "view",
      "type": "function"
    }
  ],
  "bytecode": "0x60806040523480156200001157600080fd5b5062000032620000266200004f60201b60201c565b6200005760201b60201c565b6200004960016200011b60201b6200246f1760201c565b62000131565b600033905090565b60008060009054906101000a900473ffffffffffffffffffffffffffffffffffffffff169050816000806101000a81548173ffffffffffffffffffffffffffffffffffffffff021916908373ffffffffffffffffffffffffffffffffffffffff1602179055508173ffffffffffffffffffffffffffffffffffffffff168173ffffffffffffffffffffffffffffffffffffffff167f8be0079c531659141344cd1fd0a4f28419497f9722a3daafe3b4186f6b6457e060405160405180910390a35050565b6001816000016000828254019250508190555050565b61414c80620001416000396000f3fe608060405234801561001057600080fd5b50600436106101585760003560e01c8063715018a6116100c3578063b9a0a72a1161007c578063b9a0a72a1461030a578063e03a13361461033a578063e09b8c791461036b578063e81e977b14610375578063ee74c67814610393578063f2fde38b1461039d57610158565b8063715018a614610282578063856e698c1461028c5780638da5cb5b14610296578063a7bfab16146102b4578063adfaa72e146102be578063b3f98adc146102ee57610158565b8063602c94cc11610115578063602c94cc1461020c57806362564c481461021657806362a1b50e146102345780636537c8ff1461023e578063688c26351461026e5780636c2974451461027857610158565b8063013cf08b1461015d57806312eb58bc1461018e5780632fdae3c5146101ac57806338db6dd3146101c85780634e69d560146101e45780635d495aea14610202575b600080fd5b61017760048036038101906101729190612744565b6103b9565b604051610185929190612810565b60405180910390f35b610196610475565b6040516101a39190612840565b60405180910390f35b6101c660048036038101906101c191906128c0565b610482565b005b6101e260048036038101906101dd919061296b565b6107be565b005b6101ec610a78565b6040516101f99190612a0f565b60405180910390f35b61020a610a8f565b005b610214610d3f565b005b61021e610f68565b60405161022b9190612b82565b60405180910390f35b61023c611063565b005b6102586004803603810190610253919061296b565b61124f565b6040516102659190612bbf565b60405180910390f35b610276611343565b005b6102806114a1565b005b61028a6115ab565b005b6102946115bf565b005b61029e6117c2565b6040516102ab9190612be9565b60405180910390f35b6102bc6117eb565b005b6102d860048036038101906102d3919061296b565b6118f5565b6040516102e59190612bbf565b60405180910390f35b61030860048036038101906103039190612c3d565b6119e9565b005b610324600480360381019061031f919061296b565b612010565b6040516103319190612bbf565b60405180910390f35b610354600480360381019061034f9190612744565b612105565b604051610362929190612810565b60405180910390f35b6103736121c1565b005b61037d6122cb565b60405161038a9190612c79565b60405180910390f35b61039b6122e2565b005b6103b760048036038101906103b2919061296b565b6123ec565b005b600381815481106103c957600080fd5b90600052602060002090600202016000915090508060000180546103ec90612cc3565b80601f016020809104026020016040519081016040528092919081815260200182805461041890612cc3565b80156104655780601f1061043a57610100808354040283529160200191610465565b820191906000526020600020905b81548152906001019060200180831161044857829003601f168201915b5050505050908060010154905082565b6000600680549050905090565b600260003373ffffffffffffffffffffffffffffffffffffffff1673ffffffffffffffffffffffffffffffffffffffff16815260200190815260200160002060000160009054906101000a900460ff16801561052857506104e36001612485565b600260003373ffffffffffffffffffffffffffffffffffffffff1673ffffffffffffffffffffffffffffffffffffffff16815260200190815260200160002060010154145b610567576040517f08c379a000000000000000000000000000000000000000000000000000000000815260040161055e90612d66565b60405180910390fd5b6001600681111561057b5761057a612998565b5b600760009054906101000a900460ff16600681111561059d5761059c612998565b5b146105dd576040517f08c379a00000000000000000000000000000000000000000000000000000000081526004016105d490612df8565b60405180910390fd5b6040516020016105ec90612e49565b604051602081830303815290604052805190602001208282604051602001610615929190612e92565b604051602081830303815290604052805190602001200361066b576040517f08c379a000000000000000000000000000000000000000000000000000000000815260040161066290612f1d565b60405180910390fd5b601460ff1660016003805490506106829190612f6c565b11156106c3576040517f08c379a00000000000000000000000000000000000000000000000000000000081526004016106ba90613012565b60405180910390fd5b6000604051806040016040528084848080601f016020809104026020016040519081016040528093929190818152602001838380828437600081840152601f19601f8201169050808301925050505050505081526020016000815250905060038190806001815401808255809150506001900390600052602060002090600202016000909190919091506000820151816000019081610762919061320d565b506020820151816001015550507f37a25c4f10509a80c6e280b123b326571f95fa2b2c26269a4b45d71e7b21f49960016003805490506107a291906132df565b336040516107b1929190613313565b60405180910390a1505050565b6107c6612493565b600060068111156107da576107d9612998565b5b600760009054906101000a900460ff1660068111156107fc576107fb612998565b5b1461083c576040517f08c379a0000000000000000000000000000000000000000000000000000000008152600401610833906133ae565b60405180910390fd5b600073ffffffffffffffffffffffffffffffffffffffff168173ffffffffffffffffffffffffffffffffffffffff16036108ab576040517f08c379a00000000000000000000000000000000000000000000000000000000081526004016108a29061341a565b60405180910390fd5b600260008273ffffffffffffffffffffffffffffffffffffffff1673ffffffffffffffffffffffffffffffffffffffff16815260200190815260200160002060000160009054906101000a900460ff161580610952575061090c6001612485565b600260008373ffffffffffffffffffffffffffffffffffffffff1673ffffffffffffffffffffffffffffffffffffffff1681526020019081526020016000206001015414155b610991576040517f08c379a000000000000000000000000000000000000000000000000000000000815260040161098890613486565b60405180910390fd5b6001600260008373ffffffffffffffffffffffffffffffffffffffff1673ffffffffffffffffffffffffffffffffffffffff16815260200190815260200160002060000160006101000a81548160ff0219169083151502179055506109f66001612485565b600260008373ffffffffffffffffffffffffffffffffffffffff1673ffffffffffffffffffffffffffffffffffffffff168152602001908152602001600020600101819055507f76f495f538ae23446b46f9ea62c1a4d8a985e56002509d25fd87a6dbbcff75ab8133604051610a6d9291906134a6565b60405180910390a150565b6000600760009054906101000a900460ff16905090565b610a97612493565b60046006811115610aab57610aaa612998565b5b600760009054906101000a900460ff166006811115610acd57610acc612998565b5b14610b0d576040517f08c379a0000000000000000000000000000000000000000000000000000000008152600401610b049061351b565b60405180910390fd5b600060038054905011610b55576040517f08c379a0000000000000000000000000000000000000000000000000000000008152600401610b4c906135ad565b60405180910390fd5b60006003600460009054906101000a900460ff1660ff1681548110610b7d57610b7c6135cd565b5b90600052602060002090600202016001015411610bcf576040517f08c379a0000000000000000000000000000000000000000000000000000000008152600401610bc69061366e565b60405180910390fd5b60006005805490501115610c4a576005600760006101000a81548160ff02191690836006811115610c0357610c02612998565b5b02179055507f7336f37c7437b3e9903b417e8625e2909b5f4b6a6728bbf2c2457d261624a39c6004600533604051610c3d9392919061368e565b60405180910390a1610d3d565b6006600760006101000a81548160ff02191690836006811115610c7057610c6f612998565b5b021790555060066003600460009054906101000a900460ff1660ff1681548110610c9d57610c9c6135cd565b5b9060005260206000209060020201908060018154018082558091505060019003906000526020600020906002020160009091909190915060008201816000019081610ce891906136db565b50600182015481600101555050610cff600161246f565b7f7336f37c7437b3e9903b417e8625e2909b5f4b6a6728bbf2c2457d261624a39c6004600633604051610d349392919061368e565b60405180910390a15b565b60056006811115610d5357610d52612998565b5b600760009054906101000a900460ff166006811115610d7557610d74612998565b5b14610db5576040517f08c379a0000000000000000000000000000000000000000000000000000000008152600401610dac90613835565b60405180910390fd5b610dbf6001612485565b600260003373ffffffffffffffffffffffffffffffffffffffff1673ffffffffffffffffffffffffffffffffffffffff1681526020019081526020016000206001015414610e42576040517f08c379a0000000000000000000000000000000000000000000000000000000008152600401610e39906138c7565b60405180910390fd5b600260003373ffffffffffffffffffffffffffffffffffffffff1673ffffffffffffffffffffffffffffffffffffffff16815260200190815260200160002060000160009054906101000a900460ff1615610ed2576040517f08c379a0000000000000000000000000000000000000000000000000000000008152600401610ec990613933565b60405180910390fd5b6001600260003373ffffffffffffffffffffffffffffffffffffffff1673ffffffffffffffffffffffffffffffffffffffff16815260200190815260200160002060000160006101000a81548160ff0219169083151502179055507f76f495f538ae23446b46f9ea62c1a4d8a985e56002509d25fd87a6dbbcff75ab3333604051610f5e9291906134a6565b60405180910390a1565b60606003805480602002602001604051908101604052809291908181526020016000905b8282101561105a5783829060005260206000209060020201604051806040016040529081600082018054610fbf90612cc3565b80601f0160208091040260200160405190810160405280929190818152602001828054610feb90612cc3565b80156110385780601f1061100d57610100808354040283529160200191611038565b820191906000526020600020905b81548152906001019060200180831161101b57829003601f168201915b5050505050815260200160018201548152505081526020019060010190610f8c565b50505050905090565b61106b612493565b6005600681111561107f5761107e612998565b5b600760009054906101000a900460ff1660068111156110a1576110a0612998565b5b146110e1576040517f08c379a00000000000000000000000000000000000000000000000000000000081526004016110d8906139eb565b60405180910390fd5b6000600580549050116110f7576110f6613a0b565b5b6000600580549050444243486040516020016111169493929190613a5b565b6040516020818303038152906040528051906020012060001c6111399190613ad8565b905080600460006101000a81548160ff021916908360ff16021790555060066005600460009054906101000a900460ff1660ff168154811061117e5761117d6135cd565b5b90600052602060002090600202019080600181540180825580915050600190039060005260206000209060020201600090919091909150600082018160000190816111c991906136db565b506001820154816001015550506006600760006101000a81548160ff021916908360068111156111fc576111fb612998565b5b02179055506005600061120f91906125dd565b7f7336f37c7437b3e9903b417e8625e2909b5f4b6a6728bbf2c2457d261624a39c60056006336040516112449392919061368e565b60405180910390a150565b60006001600681111561126557611264612998565b5b600760009054906101000a900460ff16600681111561128757611286612998565b5b14611295576000905061133e565b600260008373ffffffffffffffffffffffffffffffffffffffff1673ffffffffffffffffffffffffffffffffffffffff16815260200190815260200160002060000160009054906101000a900460ff16801561133b57506112f66001612485565b600260008473ffffffffffffffffffffffffffffffffffffffff1673ffffffffffffffffffffffffffffffffffffffff16815260200190815260200160002060010154145b90505b919050565b61134b612493565b6005600681111561135f5761135e612998565b5b600760009054906101000a900460ff16600681111561138157611380612998565b5b146113c1576040517f08c379a00000000000000000000000000000000000000000000000000000000081526004016113b890613b7b565b60405180910390fd5b60005b6005805490508160ff16101561141557600060058260ff16815481106113ed576113ec6135cd565b5b906000526020600020906002020160010181905550808061140d90613b9b565b9150506113c4565b5060056003908054611428929190612601565b506005600061143791906125dd565b6003600760006101000a81548160ff0219169083600681111561145d5761145c612998565b5b02179055507f7336f37c7437b3e9903b417e8625e2909b5f4b6a6728bbf2c2457d261624a39c60056003336040516114979392919061368e565b60405180910390a1565b6114a9612493565b600160068111156114bd576114bc612998565b5b600760009054906101000a900460ff1660068111156114df576114de612998565b5b1461151f576040517f08c379a000000000000000000000000000000000000000000000000000000000815260040161151690613c36565b60405180910390fd5b6000600760009054906101000a900460ff1690506002600760006101000a81548160ff0219169083600681111561155957611558612998565b5b02179055507f7336f37c7437b3e9903b417e8625e2909b5f4b6a6728bbf2c2457d261624a39c81600760009054906101000a900460ff16336040516115a09392919061368e565b60405180910390a150565b6115b3612493565b6115bd6000612511565b565b6115c7612493565b6006808111156115da576115d9612998565b5b600760009054906101000a900460ff1660068111156115fc576115fb612998565b5b148061164c57506004600681111561161757611616612998565b5b600760009054906101000a900460ff16600681111561163957611638612998565b5b14801561164b57506000600380549050145b5b806116cd57506004600681111561166657611665612998565b5b600760009054906101000a900460ff16600681111561168857611687612998565b5b1480156116cc575060006003600460009054906101000a900460ff1660ff16815481106116b8576116b76135cd565b5b906000526020600020906002020160010154145b5b61170c576040517f08c379a000000000000000000000000000000000000000000000000000000000815260040161170390613ca2565b60405180910390fd5b600460006101000a81549060ff02191690556003600061172c91906125dd565b611736600161246f565b6000600760009054906101000a900460ff1690506000600760006101000a81548160ff021916908360068111156117705761176f612998565b5b02179055507f7336f37c7437b3e9903b417e8625e2909b5f4b6a6728bbf2c2457d261624a39c81600760009054906101000a900460ff16336040516117b79392919061368e565b60405180910390a150565b60008060009054906101000a900473ffffffffffffffffffffffffffffffffffffffff16905090565b6117f3612493565b6003600681111561180757611806612998565b5b600760009054906101000a900460ff16600681111561182957611828612998565b5b14611869576040517f08c379a000000000000000000000000000000000000000000000000000000000815260040161186090613d34565b60405180910390fd5b6000600760009054906101000a900460ff1690506004600760006101000a81548160ff021916908360068111156118a3576118a2612998565b5b02179055507f7336f37c7437b3e9903b417e8625e2909b5f4b6a6728bbf2c2457d261624a39c81600760009054906101000a900460ff16336040516118ea9392919061368e565b60405180910390a150565b60006003600681111561190b5761190a612998565b5b600760009054906101000a900460ff16600681111561192d5761192c612998565b5b1461193b57600090506119e4565b600260008373ffffffffffffffffffffffffffffffffffffffff1673ffffffffffffffffffffffffffffffffffffffff16815260200190815260200160002060000160009054906101000a900460ff1680156119e1575061199c6001612485565b600260008473ffffffffffffffffffffffffffffffffffffffff1673ffffffffffffffffffffffffffffffffffffffff16815260200190815260200160002060010154145b90505b919050565b600260003373ffffffffffffffffffffffffffffffffffffffff1673ffffffffffffffffffffffffffffffffffffffff16815260200190815260200160002060000160009054906101000a900460ff168015611a8f5750611a4a6001612485565b600260003373ffffffffffffffffffffffffffffffffffffffff1673ffffffffffffffffffffffffffffffffffffffff16815260200190815260200160002060010154145b611ace576040517f08c379a0000000000000000000000000000000000000000000000000000000008152600401611ac590612d66565b60405180910390fd5b60036006811115611ae257611ae1612998565b5b600760009054906101000a900460ff166006811115611b0457611b03612998565b5b14611b44576040517f08c379a0000000000000000000000000000000000000000000000000000000008152600401611b3b90613dc6565b60405180910390fd5b8060ff1660038054905011611b8e576040517f08c379a0000000000000000000000000000000000000000000000000000000008152600401611b8590613e32565b60405180910390fd5b6000600260003373ffffffffffffffffffffffffffffffffffffffff1673ffffffffffffffffffffffffffffffffffffffff16815260200190815260200160002090508160ff16816002018190555060008160000160006101000a81548160ff02191690831515021790555060038260ff1681548110611c1157611c106135cd565b5b90600052602060002090600202016001016000815480929190611c3390613e52565b9190505550600060058054905003611e8557600460009054906101000a900460ff1660ff168260ff1603611ca0577f4d99b957a2bc29a30ebd96a7be8e68fe50a3c701db28a91436490b7d53870ca43383604051611c92929190613ecb565b60405180910390a15061200d565b6003600460009054906101000a900460ff1660ff1681548110611cc657611cc56135cd565b5b90600052602060002090600202016001015460038360ff1681548110611cef57611cee6135cd565b5b9060005260206000209060020201600101541115611d275781600460006101000a81548160ff021916908360ff160217905550611e80565b6003600460009054906101000a900460ff1660ff1681548110611d4d57611d4c6135cd565b5b90600052602060002090600202016001015460038360ff1681548110611d7657611d756135cd565b5b90600052602060002090600202016001015403611e7f5760056003600460009054906101000a900460ff1660ff1681548110611db557611db46135cd565b5b9060005260206000209060020201908060018154018082558091505060019003906000526020600020906002020160009091909190915060008201816000019081611e0091906136db565b50600182015481600101555050600560038360ff1681548110611e2657611e256135cd565b5b9060005260206000209060020201908060018154018082558091505060019003906000526020600020906002020160009091909190915060008201816000019081611e7191906136db565b506001820154816001015550505b5b611fd2565b6005600081548110611e9a57611e996135cd565b5b90600052602060002090600202016001015460038360ff1681548110611ec357611ec26135cd565b5b9060005260206000209060020201600101541115611f095781600460006101000a81548160ff021916908360ff16021790555060056000611f0491906125dd565b611fd1565b6005600081548110611f1e57611f1d6135cd565b5b90600052602060002090600202016001015460038360ff1681548110611f4757611f466135cd565b5b90600052602060002090600202016001015403611fd057600560038360ff1681548110611f7757611f766135cd565b5b9060005260206000209060020201908060018154018082558091505060019003906000526020600020906002020160009091909190915060008201816000019081611fc291906136db565b506001820154816001015550505b5b5b7f4d99b957a2bc29a30ebd96a7be8e68fe50a3c701db28a91436490b7d53870ca43383604051612003929190613ecb565b60405180910390a1505b50565b60006005600681111561202657612025612998565b5b600760009054906101000a900460ff16600681111561204857612047612998565b5b146120565760009050612100565b600260008373ffffffffffffffffffffffffffffffffffffffff1673ffffffffffffffffffffffffffffffffffffffff16815260200190815260200160002060000160009054906101000a900460ff161580156120fd57506120b86001612485565b600260008473ffffffffffffffffffffffffffffffffffffffff1673ffffffffffffffffffffffffffffffffffffffff16815260200190815260200160002060010154145b90505b919050565b6006818154811061211557600080fd5b906000526020600020906002020160009150905080600001805461213890612cc3565b80601f016020809104026020016040519081016040528092919081815260200182805461216490612cc3565b80156121b15780601f10612186576101008083540402835291602001916121b1565b820191906000526020600020905b81548152906001019060200180831161219457829003601f168201915b5050505050908060010154905082565b6121c9612493565b600060068111156121dd576121dc612998565b5b600760009054906101000a900460ff1660068111156121ff576121fe612998565b5b1461223f576040517f08c379a000000000000000000000000000000000000000000000000000000000815260040161223690613f66565b60405180910390fd5b6000600760009054906101000a900460ff1690506001600760006101000a81548160ff0219169083600681111561227957612278612998565b5b02179055507f7336f37c7437b3e9903b417e8625e2909b5f4b6a6728bbf2c2457d261624a39c81600760009054906101000a900460ff16336040516122c09392919061368e565b60405180910390a150565b6000600460009054906101000a900460ff16905090565b6122ea612493565b600260068111156122fe576122fd612998565b5b600760009054906101000a900460ff1660068111156123205761231f612998565b5b14612360576040517f08c379a000000000000000000000000000000000000000000000000000000000815260040161235790613ff8565b60405180910390fd5b6000600760009054906101000a900460ff1690506003600760006101000a81548160ff0219169083600681111561239a57612399612998565b5b02179055507f7336f37c7437b3e9903b417e8625e2909b5f4b6a6728bbf2c2457d261624a39c81600760009054906101000a900460ff16336040516123e19392919061368e565b60405180910390a150565b6123f4612493565b600073ffffffffffffffffffffffffffffffffffffffff168173ffffffffffffffffffffffffffffffffffffffff1603612463576040517f08c379a000000000000000000000000000000000000000000000000000000000815260040161245a9061408a565b60405180910390fd5b61246c81612511565b50565b6001816000016000828254019250508190555050565b600081600001549050919050565b61249b6125d5565b73ffffffffffffffffffffffffffffffffffffffff166124b96117c2565b73ffffffffffffffffffffffffffffffffffffffff161461250f576040517f08c379a0000000000000000000000000000000000000000000000000000000008152600401612506906140f6565b60405180910390fd5b565b60008060009054906101000a900473ffffffffffffffffffffffffffffffffffffffff169050816000806101000a81548173ffffffffffffffffffffffffffffffffffffffff021916908373ffffffffffffffffffffffffffffffffffffffff1602179055508173ffffffffffffffffffffffffffffffffffffffff168173ffffffffffffffffffffffffffffffffffffffff167f8be0079c531659141344cd1fd0a4f28419497f9722a3daafe3b4186f6b6457e060405160405180910390a35050565b600033905090565b50805460008255600202906000526020600020908101906125fe9190612678565b50565b8280548282559060005260206000209060020281019282156126675760005260206000209160020282015b828111156126665782826000820181600001908161264a91906136db565b506001820154816001015550509160020191906002019061262c565b5b5090506126749190612678565b5090565b5b808211156126a3576000808201600061269291906126a7565b600182016000905550600201612679565b5090565b5080546126b390612cc3565b6000825580601f106126c557506126e4565b601f0160209004906000526020600020908101906126e391906126e7565b5b50565b5b808211156127005760008160009055506001016126e8565b5090565b600080fd5b600080fd5b6000819050919050565b6127218161270e565b811461272c57600080fd5b50565b60008135905061273e81612718565b92915050565b60006020828403121561275a57612759612704565b5b60006127688482850161272f565b91505092915050565b600081519050919050565b600082825260208201905092915050565b60005b838110156127ab578082015181840152602081019050612790565b60008484015250505050565b6000601f19601f8301169050919050565b60006127d382612771565b6127dd818561277c565b93506127ed81856020860161278d565b6127f6816127b7565b840191505092915050565b61280a8161270e565b82525050565b6000604082019050818103600083015261282a81856127c8565b90506128396020830184612801565b9392505050565b60006020820190506128556000830184612801565b92915050565b600080fd5b600080fd5b600080fd5b60008083601f8401126128805761287f61285b565b5b8235905067ffffffffffffffff81111561289d5761289c612860565b5b6020830191508360018202830111156128b9576128b8612865565b5b9250929050565b600080602083850312156128d7576128d6612704565b5b600083013567ffffffffffffffff8111156128f5576128f4612709565b5b6129018582860161286a565b92509250509250929050565b600073ffffffffffffffffffffffffffffffffffffffff82169050919050565b60006129388261290d565b9050919050565b6129488161292d565b811461295357600080fd5b50565b6000813590506129658161293f565b92915050565b60006020828403121561298157612980612704565b5b600061298f84828501612956565b91505092915050565b7f4e487b7100000000000000000000000000000000000000000000000000000000600052602160045260246000fd5b600781106129d8576129d7612998565b5b50565b60008190506129e9826129c7565b919050565b60006129f9826129db565b9050919050565b612a09816129ee565b82525050565b6000602082019050612a246000830184612a00565b92915050565b600081519050919050565b600082825260208201905092915050565b6000819050602082019050919050565b600082825260208201905092915050565b6000612a7282612771565b612a7c8185612a56565b9350612a8c81856020860161278d565b612a95816127b7565b840191505092915050565b612aa98161270e565b82525050565b60006040830160008301518482036000860152612acc8282612a67565b9150506020830151612ae16020860182612aa0565b508091505092915050565b6000612af88383612aaf565b905092915050565b6000602082019050919050565b6000612b1882612a2a565b612b228185612a35565b935083602082028501612b3485612a46565b8060005b85811015612b705784840389528151612b518582612aec565b9450612b5c83612b00565b925060208a01995050600181019050612b38565b50829750879550505050505092915050565b60006020820190508181036000830152612b9c8184612b0d565b905092915050565b60008115159050919050565b612bb981612ba4565b82525050565b6000602082019050612bd46000830184612bb0565b92915050565b612be38161292d565b82525050565b6000602082019050612bfe6000830184612bda565b92915050565b600060ff82169050919050565b612c1a81612c04565b8114612c2557600080fd5b50565b600081359050612c3781612c11565b92915050565b600060208284031215612c5357612c52612704565b5b6000612c6184828501612c28565b91505092915050565b612c7381612c04565b82525050565b6000602082019050612c8e6000830184612c6a565b92915050565b7f4e487b7100000000000000000000000000000000000000000000000000000000600052602260045260246000fd5b60006002820490506001821680612cdb57607f821691505b602082108103612cee57612ced612c94565b5b50919050565b7f41646472657373206973206e6f74207265676973746572656420617320616c6c60008201527f6f77656420766f74657200000000000000000000000000000000000000000000602082015250565b6000612d50602a8361277c565b9150612d5b82612cf4565b604082019050919050565b60006020820190508181036000830152612d7f81612d43565b9050919050565b7f50726f706f73616c2063616e6e6f74206265207375626d697474656420666f7260008201527f207468652063757272656e7420766f74696e6700000000000000000000000000602082015250565b6000612de260338361277c565b9150612ded82612d86565b604082019050919050565b60006020820190508181036000830152612e1181612dd5565b9050919050565b600081905092915050565b50565b6000612e33600083612e18565b9150612e3e82612e23565b600082019050919050565b6000612e5482612e26565b9150819050919050565b82818337600083830152505050565b6000612e798385612e18565b9350612e86838584612e5e565b82840190509392505050565b6000612e9f828486612e6d565b91508190509392505050565b7f50726f706f73616c206465736372697074696f6e2063616e6e6f74206265206560008201527f6d70747900000000000000000000000000000000000000000000000000000000602082015250565b6000612f0760248361277c565b9150612f1282612eab565b604082019050919050565b60006020820190508181036000830152612f3681612efa565b9050919050565b7f4e487b7100000000000000000000000000000000000000000000000000000000600052601160045260246000fd5b6000612f778261270e565b9150612f828361270e565b9250828201905080821115612f9a57612f99612f3d565b5b92915050565b7f546f6f206d7563682070726f706f73616c7320666f722063757272656e74207660008201527f6f74696e67000000000000000000000000000000000000000000000000000000602082015250565b6000612ffc60258361277c565b915061300782612fa0565b604082019050919050565b6000602082019050818103600083015261302b81612fef565b9050919050565b7f4e487b7100000000000000000000000000000000000000000000000000000000600052604160045260246000fd5b60008190508160005260206000209050919050565b60006020601f8301049050919050565b600082821b905092915050565b6000600883026130c37fffffffffffffffffffffffffffffffffffffffffffffffffffffffffffffffff82613086565b6130cd8683613086565b95508019841693508086168417925050509392505050565b6000819050919050565b600061310a6131056131008461270e565b6130e5565b61270e565b9050919050565b6000819050919050565b613124836130ef565b61313861313082613111565b848454613093565b825550505050565b600090565b61314d613140565b61315881848461311b565b505050565b5b8181101561317c57613171600082613145565b60018101905061315e565b5050565b601f8211156131c15761319281613061565b61319b84613076565b810160208510156131aa578190505b6131be6131b685613076565b83018261315d565b50505b505050565b600082821c905092915050565b60006131e4600019846008026131c6565b1980831691505092915050565b60006131fd83836131d3565b9150826002028217905092915050565b61321682612771565b67ffffffffffffffff81111561322f5761322e613032565b5b6132398254612cc3565b613244828285613180565b600060209050601f8311600181146132775760008415613265578287015190505b61326f85826131f1565b8655506132d7565b601f19841661328586613061565b60005b828110156132ad57848901518255600182019150602085019450602081019050613288565b868310156132ca57848901516132c6601f8916826131d3565b8355505b6001600288020188555050505b505050505050565b60006132ea8261270e565b91506132f58361270e565b925082820390508181111561330d5761330c612f3d565b5b92915050565b60006040820190506133286000830185612801565b6133356020830184612bda565b9392505050565b7f5265676973746572696e67206e657720766f74657273206973206e6f7420616c60008201527f6c6f77656420666f72207468652063757272656e7420766f74696e6700000000602082015250565b6000613398603c8361277c565b91506133a38261333c565b604082019050919050565b600060208201905081810360008301526133c78161338b565b9050919050565b7f30206164647265737320697320696e76616c6964000000000000000000000000600082015250565b600061340460148361277c565b915061340f826133ce565b602082019050919050565b60006020820190508181036000830152613433816133f7565b9050919050565b7f566f74657220697320616c726561647920726567697374657265640000000000600082015250565b6000613470601b8361277c565b915061347b8261343a565b602082019050919050565b6000602082019050818103600083015261349f81613463565b9050919050565b60006040820190506134bb6000830185612bda565b6134c86020830184612bda565b9392505050565b7f566f74696e672073657373696f6e206973206e6f742066696e69736865640000600082015250565b6000613505601e8361277c565b9150613510826134cf565b602082019050919050565b60006020820190508181036000830152613534816134f8565b9050919050565b7f5468657265206973206e6f2070726f706f73616c20666f72207468697320766f60008201527f74696e6700000000000000000000000000000000000000000000000000000000602082015250565b600061359760248361277c565b91506135a28261353b565b604082019050919050565b600060208201905081810360008301526135c68161358a565b9050919050565b7f4e487b7100000000000000000000000000000000000000000000000000000000600052603260045260246000fd5b7f4e6f2070726f706f73616c2068617320612073696e676c6520766f746520666f60008201527f72207468652063757272656e7420766f74696e67000000000000000000000000602082015250565b600061365860348361277c565b9150613663826135fc565b604082019050919050565b600060208201905081810360008301526136878161364b565b9050919050565b60006060820190506136a36000830186612a00565b6136b06020830185612a00565b6136bd6040830184612bda565b949350505050565b6000815490506136d481612cc3565b9050919050565b8181036136e95750506137c1565b6136f2826136c5565b67ffffffffffffffff81111561370b5761370a613032565b5b6137158254612cc3565b613720828285613180565b6000601f83116001811461374f576000841561373d578287015490505b61374785826131f1565b8655506137ba565b601f19841661375d87613061565b965061376886613061565b60005b828110156137905784890154825560018201915060018501945060208101905061376b565b868310156137ad57848901546137a9601f8916826131d3565b8355505b6001600288020188555050505b5050505050505b565b7f4e6f206e65656420746f20726567697374657220616761696e20617320766f7460008201527f6572206e6f770000000000000000000000000000000000000000000000000000602082015250565b600061381f60268361277c565b915061382a826137c3565b604082019050919050565b6000602082019050818103600083015261384e81613812565b9050919050565b7f596f75207761736e2774207265676973746572656420617320766f746572206660008201527f6f722063757272656e7420766f74696e67000000000000000000000000000000602082015250565b60006138b160318361277c565b91506138bc82613855565b604082019050919050565b600060208201905081810360008301526138e0816138a4565b9050919050565b7f416c726561647920726567697374657265640000000000000000000000000000600082015250565b600061391d60128361277c565b9150613928826138e7565b602082019050919050565b6000602082019050818103600083015261394c81613910565b9050919050565b7f57696e6e696e672070726f706f73616c2063616e206f6e6c792062652072616e60008201527f646f6d6c79207069636b656420696620746865726520697320616e206571756160208201527f6c69747900000000000000000000000000000000000000000000000000000000604082015250565b60006139d560448361277c565b91506139e082613953565b606082019050919050565b60006020820190508181036000830152613a04816139c8565b9050919050565b7f4e487b7100000000000000000000000000000000000000000000000000000000600052600160045260246000fd5b6000819050919050565b613a55613a508261270e565b613a3a565b82525050565b6000613a678287613a44565b602082019150613a778286613a44565b602082019150613a878285613a44565b602082019150613a978284613a44565b60208201915081905095945050505050565b7f4e487b7100000000000000000000000000000000000000000000000000000000600052601260045260246000fd5b6000613ae38261270e565b9150613aee8361270e565b925082613afe57613afd613aa9565b5b828206905092915050565b7f4e65772062616c6c6f742063616e206f6e6c792062652070726570617265642060008201527f666f7220616e20657175616c6974790000000000000000000000000000000000602082015250565b6000613b65602f8361277c565b9150613b7082613b09565b604082019050919050565b60006020820190508181036000830152613b9481613b58565b9050919050565b6000613ba682612c04565b915060ff8203613bb957613bb8612f3d565b5b600182019050919050565b7f43757272656e7420766f74696e67206973206e6f74207265676973746572696e60008201527f672070726f706f73616c73000000000000000000000000000000000000000000602082015250565b6000613c20602b8361277c565b9150613c2b82613bc4565b604082019050919050565b60006020820190508181036000830152613c4f81613c13565b9050919050565b7f526573657474696e6720766f74696e67206973206e6f7420616c6c6f77656400600082015250565b6000613c8c601f8361277c565b9150613c9782613c56565b602082019050919050565b60006020820190508181036000830152613cbb81613c7f565b9050919050565b7f43757272656e7420766f74696e672073657373696f6e206861736e277420737460008201527f6172746564000000000000000000000000000000000000000000000000000000602082015250565b6000613d1e60258361277c565b9150613d2982613cc2565b604082019050919050565b60006020820190508181036000830152613d4d81613d11565b9050919050565b7f566f74652063616e6e6f74206265207375626d697474656420666f722074686560008201527f2063757272656e7420766f74696e670000000000000000000000000000000000602082015250565b6000613db0602f8361277c565b9150613dbb82613d54565b604082019050919050565b60006020820190508181036000830152613ddf81613da3565b9050919050565b7f50726f706f73616c206e6f7420666f756e640000000000000000000000000000600082015250565b6000613e1c60128361277c565b9150613e2782613de6565b602082019050919050565b60006020820190508181036000830152613e4b81613e0f565b9050919050565b6000613e5d8261270e565b91507fffffffffffffffffffffffffffffffffffffffffffffffffffffffffffffffff8203613e8f57613e8e612f3d565b5b600182019050919050565b6000613eb5613eb0613eab84612c04565b6130e5565b61270e565b9050919050565b613ec581613e9a565b82525050565b6000604082019050613ee06000830185612bda565b613eed6020830184613ebc565b9392505050565b7f43757272656e7420766f74696e67206973206e6f74207265676973746572696e60008201527f6720766f74657273000000000000000000000000000000000000000000000000602082015250565b6000613f5060288361277c565b9150613f5b82613ef4565b604082019050919050565b60006020820190508181036000830152613f7f81613f43565b9050919050565b7f43757272656e7420766f74696e67206973207374696c6c20726567697374657260008201527f696e672070726f706f73616c7300000000000000000000000000000000000000602082015250565b6000613fe2602d8361277c565b9150613fed82613f86565b604082019050919050565b6000602082019050818103600083015261401181613fd5565b9050919050565b7f4f776e61626c653a206e6577206f776e657220697320746865207a65726f206160008201527f6464726573730000000000000000000000000000000000000000000000000000602082015250565b600061407460268361277c565b915061407f82614018565b604082019050919050565b600060208201905081810360008301526140a381614067565b9050919050565b7f4f776e61626c653a2063616c6c6572206973206e6f7420746865206f776e6572600082015250565b60006140e060208361277c565b91506140eb826140aa565b602082019050919050565b6000602082019050818103600083015261410f816140d3565b905091905056fea264697066735822122080a08b4b7108a77d93348d8984278774af050fcf68f34b5b876ee8cb25c6c25c64736f6c63430008110033",
  "linkReferences": {},
  "deployedLinkReferences": {}
}